{
  "_format": "hh-sol-artifact-1",
  "contractName": "NFTMarketplace",
  "sourceName": "contracts/NFTMarketplace.sol",
  "abi": [
    {
      "inputs": [],
      "stateMutability": "nonpayable",
      "type": "constructor"
    },
    {
      "inputs": [
        {
          "internalType": "address",
          "name": "sender",
          "type": "address"
        },
        {
          "internalType": "uint256",
          "name": "tokenId",
          "type": "uint256"
        },
        {
          "internalType": "address",
          "name": "owner",
          "type": "address"
        }
      ],
      "name": "ERC721IncorrectOwner",
      "type": "error"
    },
    {
      "inputs": [
        {
          "internalType": "address",
          "name": "operator",
          "type": "address"
        },
        {
          "internalType": "uint256",
          "name": "tokenId",
          "type": "uint256"
        }
      ],
      "name": "ERC721InsufficientApproval",
      "type": "error"
    },
    {
      "inputs": [
        {
          "internalType": "address",
          "name": "approver",
          "type": "address"
        }
      ],
      "name": "ERC721InvalidApprover",
      "type": "error"
    },
    {
      "inputs": [
        {
          "internalType": "address",
          "name": "operator",
          "type": "address"
        }
      ],
      "name": "ERC721InvalidOperator",
      "type": "error"
    },
    {
      "inputs": [
        {
          "internalType": "address",
          "name": "owner",
          "type": "address"
        }
      ],
      "name": "ERC721InvalidOwner",
      "type": "error"
    },
    {
      "inputs": [
        {
          "internalType": "address",
          "name": "receiver",
          "type": "address"
        }
      ],
      "name": "ERC721InvalidReceiver",
      "type": "error"
    },
    {
      "inputs": [
        {
          "internalType": "address",
          "name": "sender",
          "type": "address"
        }
      ],
      "name": "ERC721InvalidSender",
      "type": "error"
    },
    {
      "inputs": [
        {
          "internalType": "uint256",
          "name": "tokenId",
          "type": "uint256"
        }
      ],
      "name": "ERC721NonexistentToken",
      "type": "error"
    },
    {
      "inputs": [],
      "name": "ReentrancyGuardReentrantCall",
      "type": "error"
    },
    {
      "anonymous": false,
      "inputs": [
        {
          "indexed": true,
          "internalType": "address",
          "name": "owner",
          "type": "address"
        },
        {
          "indexed": true,
          "internalType": "address",
          "name": "approved",
          "type": "address"
        },
        {
          "indexed": true,
          "internalType": "uint256",
          "name": "tokenId",
          "type": "uint256"
        }
      ],
      "name": "Approval",
      "type": "event"
    },
    {
      "anonymous": false,
      "inputs": [
        {
          "indexed": true,
          "internalType": "address",
          "name": "owner",
          "type": "address"
        },
        {
          "indexed": true,
          "internalType": "address",
          "name": "operator",
          "type": "address"
        },
        {
          "indexed": false,
          "internalType": "bool",
          "name": "approved",
          "type": "bool"
        }
      ],
      "name": "ApprovalForAll",
      "type": "event"
    },
    {
      "anonymous": false,
      "inputs": [
        {
          "indexed": false,
          "internalType": "uint256",
          "name": "_fromTokenId",
          "type": "uint256"
        },
        {
          "indexed": false,
          "internalType": "uint256",
          "name": "_toTokenId",
          "type": "uint256"
        }
      ],
      "name": "BatchMetadataUpdate",
      "type": "event"
    },
    {
      "anonymous": false,
      "inputs": [
        {
          "indexed": true,
          "internalType": "uint256",
          "name": "tokenId",
          "type": "uint256"
        },
        {
          "indexed": false,
          "internalType": "address",
          "name": "seller",
          "type": "address"
        },
        {
          "indexed": false,
          "internalType": "uint256",
          "name": "price",
          "type": "uint256"
        }
      ],
      "name": "MarketItemReselled",
      "type": "event"
    },
    {
      "anonymous": false,
      "inputs": [
        {
          "indexed": true,
          "internalType": "uint256",
          "name": "tokenId",
          "type": "uint256"
        },
        {
          "indexed": false,
          "internalType": "address",
          "name": "seller",
          "type": "address"
        },
        {
          "indexed": false,
          "internalType": "address",
          "name": "buyer",
          "type": "address"
        },
        {
          "indexed": false,
          "internalType": "uint256",
          "name": "price",
          "type": "uint256"
        },
        {
          "indexed": false,
          "internalType": "bool",
          "name": "sold",
          "type": "bool"
        }
      ],
      "name": "MarketItemSold",
      "type": "event"
    },
    {
      "anonymous": false,
      "inputs": [
        {
          "indexed": false,
          "internalType": "uint256",
          "name": "_tokenId",
          "type": "uint256"
        }
      ],
      "name": "MetadataUpdate",
      "type": "event"
    },
    {
      "anonymous": false,
      "inputs": [
        {
          "indexed": true,
          "internalType": "address",
          "name": "from",
          "type": "address"
        },
        {
          "indexed": true,
          "internalType": "address",
          "name": "to",
          "type": "address"
        },
        {
          "indexed": true,
          "internalType": "uint256",
          "name": "tokenId",
          "type": "uint256"
        }
      ],
      "name": "Transfer",
      "type": "event"
    },
    {
      "anonymous": false,
      "inputs": [
        {
          "indexed": true,
          "internalType": "uint256",
          "name": "tokenId",
          "type": "uint256"
        },
        {
          "indexed": false,
          "internalType": "address",
          "name": "seller",
          "type": "address"
        },
        {
          "indexed": false,
          "internalType": "address",
          "name": "owner",
          "type": "address"
        },
        {
          "indexed": false,
          "internalType": "uint256",
          "name": "price",
          "type": "uint256"
        },
        {
          "indexed": false,
          "internalType": "bool",
          "name": "sold",
          "type": "bool"
        }
      ],
      "name": "idMarketItemCreated",
      "type": "event"
    },
    {
      "inputs": [
        {
          "internalType": "address",
          "name": "to",
          "type": "address"
        },
        {
          "internalType": "uint256",
          "name": "tokenId",
          "type": "uint256"
        }
      ],
      "name": "approve",
      "outputs": [],
      "stateMutability": "nonpayable",
      "type": "function"
    },
    {
      "inputs": [
        {
          "internalType": "address",
          "name": "owner",
          "type": "address"
        }
      ],
      "name": "balanceOf",
      "outputs": [
        {
          "internalType": "uint256",
          "name": "",
          "type": "uint256"
        }
      ],
      "stateMutability": "view",
      "type": "function"
    },
    {
      "inputs": [
        {
          "internalType": "uint256",
          "name": "tokenId",
          "type": "uint256"
        }
      ],
      "name": "createMarketSale",
      "outputs": [],
      "stateMutability": "payable",
      "type": "function"
    },
    {
      "inputs": [
        {
          "internalType": "string",
          "name": "tokenURI",
          "type": "string"
        },
        {
          "internalType": "uint256",
          "name": "price",
          "type": "uint256"
        }
      ],
      "name": "createToken",
      "outputs": [
        {
          "internalType": "uint256",
          "name": "",
          "type": "uint256"
        }
      ],
      "stateMutability": "payable",
      "type": "function"
    },
    {
      "inputs": [],
      "name": "fetchAllTokens",
      "outputs": [
        {
          "components": [
            {
              "internalType": "uint256",
              "name": "tokenId",
              "type": "uint256"
            },
            {
              "internalType": "address payable",
              "name": "seller",
              "type": "address"
            },
            {
              "internalType": "address payable",
              "name": "owner",
              "type": "address"
            },
            {
              "internalType": "uint256",
              "name": "price",
              "type": "uint256"
            },
            {
              "internalType": "bool",
              "name": "sold",
              "type": "bool"
            }
          ],
          "internalType": "struct NFTMarketplace.MarketItem[]",
          "name": "",
          "type": "tuple[]"
        }
      ],
      "stateMutability": "view",
      "type": "function"
    },
    {
      "inputs": [],
      "name": "fetchItemsListed",
      "outputs": [
        {
          "components": [
            {
              "internalType": "uint256",
              "name": "tokenId",
              "type": "uint256"
            },
            {
              "internalType": "address payable",
              "name": "seller",
              "type": "address"
            },
            {
              "internalType": "address payable",
              "name": "owner",
              "type": "address"
            },
            {
              "internalType": "uint256",
              "name": "price",
              "type": "uint256"
            },
            {
              "internalType": "bool",
              "name": "sold",
              "type": "bool"
            }
          ],
          "internalType": "struct NFTMarketplace.MarketItem[]",
          "name": "",
          "type": "tuple[]"
        }
      ],
      "stateMutability": "view",
      "type": "function"
    },
    {
      "inputs": [],
      "name": "fetchMarketItem",
      "outputs": [
        {
          "components": [
            {
              "internalType": "uint256",
              "name": "tokenId",
              "type": "uint256"
            },
            {
              "internalType": "address payable",
              "name": "seller",
              "type": "address"
            },
            {
              "internalType": "address payable",
              "name": "owner",
              "type": "address"
            },
            {
              "internalType": "uint256",
              "name": "price",
              "type": "uint256"
            },
            {
              "internalType": "bool",
              "name": "sold",
              "type": "bool"
            }
          ],
          "internalType": "struct NFTMarketplace.MarketItem[]",
          "name": "",
          "type": "tuple[]"
        }
      ],
      "stateMutability": "view",
      "type": "function"
    },
    {
      "inputs": [],
      "name": "fetchMyNFTs",
      "outputs": [
        {
          "components": [
            {
              "internalType": "uint256",
              "name": "tokenId",
              "type": "uint256"
            },
            {
              "internalType": "address payable",
              "name": "seller",
              "type": "address"
            },
            {
              "internalType": "address payable",
              "name": "owner",
              "type": "address"
            },
            {
              "internalType": "uint256",
              "name": "price",
              "type": "uint256"
            },
            {
              "internalType": "bool",
              "name": "sold",
              "type": "bool"
            }
          ],
          "internalType": "struct NFTMarketplace.MarketItem[]",
          "name": "",
          "type": "tuple[]"
        }
      ],
      "stateMutability": "view",
      "type": "function"
    },
    {
      "inputs": [
        {
          "internalType": "uint256",
          "name": "tokenId",
          "type": "uint256"
        }
      ],
      "name": "getApproved",
      "outputs": [
        {
          "internalType": "address",
          "name": "",
          "type": "address"
        }
      ],
      "stateMutability": "view",
      "type": "function"
    },
    {
      "inputs": [],
      "name": "getListingPrice",
      "outputs": [
        {
          "internalType": "uint256",
          "name": "",
          "type": "uint256"
        }
      ],
      "stateMutability": "view",
      "type": "function"
    },
    {
      "inputs": [
        {
          "internalType": "address",
          "name": "owner",
          "type": "address"
        },
        {
          "internalType": "address",
          "name": "operator",
          "type": "address"
        }
      ],
      "name": "isApprovedForAll",
      "outputs": [
        {
          "internalType": "bool",
          "name": "",
          "type": "bool"
        }
      ],
      "stateMutability": "view",
      "type": "function"
    },
    {
      "inputs": [],
      "name": "name",
      "outputs": [
        {
          "internalType": "string",
          "name": "",
          "type": "string"
        }
      ],
      "stateMutability": "view",
      "type": "function"
    },
    {
      "inputs": [
        {
          "internalType": "uint256",
          "name": "tokenId",
          "type": "uint256"
        }
      ],
      "name": "ownerOf",
      "outputs": [
        {
          "internalType": "address",
          "name": "",
          "type": "address"
        }
      ],
      "stateMutability": "view",
      "type": "function"
    },
    {
      "inputs": [
        {
          "internalType": "uint256",
          "name": "tokenId",
          "type": "uint256"
        },
        {
          "internalType": "uint256",
          "name": "price",
          "type": "uint256"
        }
      ],
      "name": "reSellToken",
      "outputs": [],
      "stateMutability": "payable",
      "type": "function"
    },
    {
      "inputs": [
        {
          "internalType": "address",
          "name": "from",
          "type": "address"
        },
        {
          "internalType": "address",
          "name": "to",
          "type": "address"
        },
        {
          "internalType": "uint256",
          "name": "tokenId",
          "type": "uint256"
        }
      ],
      "name": "safeTransferFrom",
      "outputs": [],
      "stateMutability": "nonpayable",
      "type": "function"
    },
    {
      "inputs": [
        {
          "internalType": "address",
          "name": "from",
          "type": "address"
        },
        {
          "internalType": "address",
          "name": "to",
          "type": "address"
        },
        {
          "internalType": "uint256",
          "name": "tokenId",
          "type": "uint256"
        },
        {
          "internalType": "bytes",
          "name": "data",
          "type": "bytes"
        }
      ],
      "name": "safeTransferFrom",
      "outputs": [],
      "stateMutability": "nonpayable",
      "type": "function"
    },
    {
      "inputs": [
        {
          "internalType": "address",
          "name": "operator",
          "type": "address"
        },
        {
          "internalType": "bool",
          "name": "approved",
          "type": "bool"
        }
      ],
      "name": "setApprovalForAll",
      "outputs": [],
      "stateMutability": "nonpayable",
      "type": "function"
    },
    {
      "inputs": [
        {
          "internalType": "bytes4",
          "name": "interfaceId",
          "type": "bytes4"
        }
      ],
      "name": "supportsInterface",
      "outputs": [
        {
          "internalType": "bool",
          "name": "",
          "type": "bool"
        }
      ],
      "stateMutability": "view",
      "type": "function"
    },
    {
      "inputs": [],
      "name": "symbol",
      "outputs": [
        {
          "internalType": "string",
          "name": "",
          "type": "string"
        }
      ],
      "stateMutability": "view",
      "type": "function"
    },
    {
      "inputs": [
        {
          "internalType": "uint256",
          "name": "tokenId",
          "type": "uint256"
        }
      ],
      "name": "tokenURI",
      "outputs": [
        {
          "internalType": "string",
          "name": "",
          "type": "string"
        }
      ],
      "stateMutability": "view",
      "type": "function"
    },
    {
      "inputs": [
        {
          "internalType": "address",
          "name": "from",
          "type": "address"
        },
        {
          "internalType": "address",
          "name": "to",
          "type": "address"
        },
        {
          "internalType": "uint256",
          "name": "tokenId",
          "type": "uint256"
        }
      ],
      "name": "transferFrom",
      "outputs": [],
      "stateMutability": "nonpayable",
      "type": "function"
    },
    {
      "inputs": [
        {
          "internalType": "uint256",
          "name": "_listingPrice",
          "type": "uint256"
        }
      ],
      "name": "updateListingPrice",
      "outputs": [],
      "stateMutability": "payable",
      "type": "function"
    }
  ],
  "bytecode": "0x60806040526608e1bc9bf04000600a5534801561001b57600080fd5b506040518060400160405280601381526020017f4e4654204d657461766572736520546f6b656e000000000000000000000000008152506040518060400160405280600581526020017f4d594e465400000000000000000000000000000000000000000000000000000081525081600090816100979190610348565b5080600190816100a79190610348565b505050600160078190555033600b60006101000a81548173ffffffffffffffffffffffffffffffffffffffff021916908373ffffffffffffffffffffffffffffffffffffffff16021790555061041a565b600081519050919050565b7f4e487b7100000000000000000000000000000000000000000000000000000000600052604160045260246000fd5b7f4e487b7100000000000000000000000000000000000000000000000000000000600052602260045260246000fd5b6000600282049050600182168061017957607f821691505b60208210810361018c5761018b610132565b5b50919050565b60008190508160005260206000209050919050565b60006020601f8301049050919050565b600082821b905092915050565b6000600883026101f47fffffffffffffffffffffffffffffffffffffffffffffffffffffffffffffffff826101b7565b6101fe86836101b7565b95508019841693508086168417925050509392505050565b6000819050919050565b6000819050919050565b600061024561024061023b84610216565b610220565b610216565b9050919050565b6000819050919050565b61025f8361022a565b61027361026b8261024c565b8484546101c4565b825550505050565b600090565b61028861027b565b610293818484610256565b505050565b5b818110156102b7576102ac600082610280565b600181019050610299565b5050565b601f8211156102fc576102cd81610192565b6102d6846101a7565b810160208510156102e5578190505b6102f96102f1856101a7565b830182610298565b50505b505050565b600082821c905092915050565b600061031f60001984600802610301565b1980831691505092915050565b6000610338838361030e565b9150826002028217905092915050565b610351826100f8565b67ffffffffffffffff81111561036a57610369610103565b5b6103748254610161565b61037f8282856102bb565b600060209050601f8311600181146103b257600084156103a0578287015190505b6103aa858261032c565b865550610412565b601f1984166103c086610192565b60005b828110156103e8578489015182556001820191506020850194506020810190506103c3565b868310156104055784890151610401601f89168261030e565b8355505b6001600288020188555050505b505050505050565b613e20806104296000396000f3fe6080604052600436106101355760003560e01c806370a08231116100ab578063a22cb4651161006f578063a22cb46514610422578063ae677aa31461044b578063b88d4fde14610467578063be9af53614610490578063c87b56dd146104ac578063e985e9c5146104e957610135565b806370a082311461034357806372b3b6201461038057806385535b25146103b05780638fafd021146103cc57806395d89b41146103f757610135565b8063202e3740116100fd578063202e37401461023357806323b872dd1461025e5780632528b6761461028757806342842e0e146102b257806345f8fa80146102db5780636352211e1461030657610135565b806301ffc9a71461013a57806306fdde0314610177578063081812fc146101a2578063095ea7b3146101df57806312e8558514610208575b600080fd5b34801561014657600080fd5b50610161600480360381019061015c9190612d30565b610526565b60405161016e9190612d78565b60405180910390f35b34801561018357600080fd5b5061018c610587565b6040516101999190612e23565b60405180910390f35b3480156101ae57600080fd5b506101c960048036038101906101c49190612e7b565b610619565b6040516101d69190612ee9565b60405180910390f35b3480156101eb57600080fd5b5061020660048036038101906102019190612f30565b610635565b005b34801561021457600080fd5b5061021d61064b565b60405161022a9190612f7f565b60405180910390f35b34801561023f57600080fd5b50610248610655565b60405161025591906130f0565b60405180910390f35b34801561026a57600080fd5b5061028560048036038101906102809190613112565b61092e565b005b34801561029357600080fd5b5061029c610a30565b6040516102a991906130f0565b60405180910390f35b3480156102be57600080fd5b506102d960048036038101906102d49190613112565b610bde565b005b3480156102e757600080fd5b506102f0610bfe565b6040516102fd91906130f0565b60405180910390f35b34801561031257600080fd5b5061032d60048036038101906103289190612e7b565b610ed7565b60405161033a9190612ee9565b60405180910390f35b34801561034f57600080fd5b5061036a60048036038101906103659190613165565b610ee9565b6040516103779190612f7f565b60405180910390f35b61039a600480360381019061039591906132c7565b610fa3565b6040516103a79190612f7f565b60405180910390f35b6103ca60048036038101906103c59190613323565b610fee565b005b3480156103d857600080fd5b506103e161122d565b6040516103ee91906130f0565b60405180910390f35b34801561040357600080fd5b5061040c61147a565b6040516104199190612e23565b60405180910390f35b34801561042e57600080fd5b506104496004803603810190610444919061338f565b61150c565b005b61046560048036038101906104609190612e7b565b611522565b005b34801561047357600080fd5b5061048e60048036038101906104899190613470565b6115bc565b005b6104aa60048036038101906104a59190612e7b565b6115e1565b005b3480156104b857600080fd5b506104d360048036038101906104ce9190612e7b565b61186e565b6040516104e09190612e23565b60405180910390f35b3480156104f557600080fd5b50610510600480360381019061050b91906134f3565b611981565b60405161051d9190612d78565b60405180910390f35b6000634906490660e01b7bffffffffffffffffffffffffffffffffffffffffffffffffffffffff1916827bffffffffffffffffffffffffffffffffffffffffffffffffffffffff19161480610580575061057f82611a15565b5b9050919050565b60606000805461059690613562565b80601f01602080910402602001604051908101604052809291908181526020018280546105c290613562565b801561060f5780601f106105e45761010080835404028352916020019161060f565b820191906000526020600020905b8154815290600101906020018083116105f257829003601f168201915b5050505050905090565b600061062482611af7565b5061062e82611b7f565b9050919050565b6106478282610642611bbc565b611bc4565b5050565b6000600a54905090565b60606000600854905060008060005b838110156106fe573373ffffffffffffffffffffffffffffffffffffffff16600c600060018461069491906135c2565b815260200190815260200160002060020160009054906101000a900473ffffffffffffffffffffffffffffffffffffffff1673ffffffffffffffffffffffffffffffffffffffff16036106f1576001836106ee91906135c2565b92505b8080600101915050610664565b5060008267ffffffffffffffff81111561071b5761071a61319c565b5b60405190808252806020026020018201604052801561075457816020015b610741612c67565b8152602001906001900390816107395790505b50905060005b84811015610923573373ffffffffffffffffffffffffffffffffffffffff16600c600060018461078a91906135c2565b815260200190815260200160002060020160009054906101000a900473ffffffffffffffffffffffffffffffffffffffff1673ffffffffffffffffffffffffffffffffffffffff16036109165760006001826107e691906135c2565b90506000600c60008381526020019081526020016000209050806040518060a0016040529081600082015481526020016001820160009054906101000a900473ffffffffffffffffffffffffffffffffffffffff1673ffffffffffffffffffffffffffffffffffffffff1673ffffffffffffffffffffffffffffffffffffffff1681526020016002820160009054906101000a900473ffffffffffffffffffffffffffffffffffffffff1673ffffffffffffffffffffffffffffffffffffffff1673ffffffffffffffffffffffffffffffffffffffff168152602001600382015481526020016004820160009054906101000a900460ff1615151515815250508486815181106108f9576108f86135f6565b5b602002602001018190525060018561091191906135c2565b945050505b808060010191505061075a565b508094505050505090565b600073ffffffffffffffffffffffffffffffffffffffff168273ffffffffffffffffffffffffffffffffffffffff16036109a05760006040517f64a0ae920000000000000000000000000000000000000000000000000000000081526004016109979190612ee9565b60405180910390fd5b60006109b483836109af611bbc565b611bd6565b90508373ffffffffffffffffffffffffffffffffffffffff168173ffffffffffffffffffffffffffffffffffffffff1614610a2a578382826040517f64283d7b000000000000000000000000000000000000000000000000000000008152600401610a2193929190613625565b60405180910390fd5b50505050565b60606000600854905060008167ffffffffffffffff811115610a5557610a5461319c565b5b604051908082528060200260200182016040528015610a8e57816020015b610a7b612c67565b815260200190600190039081610a735790505b5090506000600190505b828111610bd557600c60008281526020019081526020016000206040518060a0016040529081600082015481526020016001820160009054906101000a900473ffffffffffffffffffffffffffffffffffffffff1673ffffffffffffffffffffffffffffffffffffffff1673ffffffffffffffffffffffffffffffffffffffff1681526020016002820160009054906101000a900473ffffffffffffffffffffffffffffffffffffffff1673ffffffffffffffffffffffffffffffffffffffff1673ffffffffffffffffffffffffffffffffffffffff168152602001600382015481526020016004820160009054906101000a900460ff16151515158152505082600183610ba6919061365c565b81518110610bb757610bb66135f6565b5b60200260200101819052508080610bcd90613690565b915050610a98565b50809250505090565b610bf9838383604051806020016040528060008152506115bc565b505050565b60606000600854905060008060005b83811015610ca7573373ffffffffffffffffffffffffffffffffffffffff16600c6000600184610c3d91906135c2565b815260200190815260200160002060010160009054906101000a900473ffffffffffffffffffffffffffffffffffffffff1673ffffffffffffffffffffffffffffffffffffffff1603610c9a57600183610c9791906135c2565b92505b8080600101915050610c0d565b5060008267ffffffffffffffff811115610cc457610cc361319c565b5b604051908082528060200260200182016040528015610cfd57816020015b610cea612c67565b815260200190600190039081610ce25790505b50905060005b84811015610ecc573373ffffffffffffffffffffffffffffffffffffffff16600c6000600184610d3391906135c2565b815260200190815260200160002060010160009054906101000a900473ffffffffffffffffffffffffffffffffffffffff1673ffffffffffffffffffffffffffffffffffffffff1603610ebf576000600182610d8f91906135c2565b90506000600c60008381526020019081526020016000209050806040518060a0016040529081600082015481526020016001820160009054906101000a900473ffffffffffffffffffffffffffffffffffffffff1673ffffffffffffffffffffffffffffffffffffffff1673ffffffffffffffffffffffffffffffffffffffff1681526020016002820160009054906101000a900473ffffffffffffffffffffffffffffffffffffffff1673ffffffffffffffffffffffffffffffffffffffff1673ffffffffffffffffffffffffffffffffffffffff168152602001600382015481526020016004820160009054906101000a900460ff161515151581525050848681518110610ea257610ea16135f6565b5b6020026020010181905250600185610eba91906135c2565b945050505b8080600101915050610d03565b508094505050505090565b6000610ee282611af7565b9050919050565b60008073ffffffffffffffffffffffffffffffffffffffff168273ffffffffffffffffffffffffffffffffffffffff1603610f5c5760006040517f89c62b64000000000000000000000000000000000000000000000000000000008152600401610f539190612ee9565b60405180910390fd5b600360008373ffffffffffffffffffffffffffffffffffffffff1673ffffffffffffffffffffffffffffffffffffffff168152602001908152602001600020549050919050565b6000600160086000828254610fb891906135c2565b9250508190555060006008549050610fd03382611df0565b610fda8185611ee9565b610fe48184611f45565b8091505092915050565b3373ffffffffffffffffffffffffffffffffffffffff16600c600084815260200190815260200160002060020160009054906101000a900473ffffffffffffffffffffffffffffffffffffffff1673ffffffffffffffffffffffffffffffffffffffff1614611092576040517f08c379a00000000000000000000000000000000000000000000000000000000081526004016110899061374a565b60405180910390fd5b600a5434146110d6576040517f08c379a00000000000000000000000000000000000000000000000000000000081526004016110cd906137dc565b60405180910390fd5b6000600c600084815260200190815260200160002060040160006101000a81548160ff02191690831515021790555080600c60008481526020019081526020016000206003018190555033600c600084815260200190815260200160002060010160006101000a81548173ffffffffffffffffffffffffffffffffffffffff021916908373ffffffffffffffffffffffffffffffffffffffff16021790555030600c600084815260200190815260200160002060020160006101000a81548173ffffffffffffffffffffffffffffffffffffffff021916908373ffffffffffffffffffffffffffffffffffffffff1602179055506001600960008282546111dd919061365c565b925050819055506111ef333084612148565b817f504015a508fc840b28388460476ecf10e7c6d64b676214f1a96b7eca031d263133836040516112219291906137fc565b60405180910390a25050565b6060600060085490506000600954600854611248919061365c565b90506000808267ffffffffffffffff8111156112675761126661319c565b5b6040519080825280602002602001820160405280156112a057816020015b61128d612c67565b8152602001906001900390816112855790505b50905060005b8481101561146f573073ffffffffffffffffffffffffffffffffffffffff16600c60006001846112d691906135c2565b815260200190815260200160002060020160009054906101000a900473ffffffffffffffffffffffffffffffffffffffff1673ffffffffffffffffffffffffffffffffffffffff160361146257600060018261133291906135c2565b90506000600c60008381526020019081526020016000209050806040518060a0016040529081600082015481526020016001820160009054906101000a900473ffffffffffffffffffffffffffffffffffffffff1673ffffffffffffffffffffffffffffffffffffffff1673ffffffffffffffffffffffffffffffffffffffff1681526020016002820160009054906101000a900473ffffffffffffffffffffffffffffffffffffffff1673ffffffffffffffffffffffffffffffffffffffff1673ffffffffffffffffffffffffffffffffffffffff168152602001600382015481526020016004820160009054906101000a900460ff161515151581525050848681518110611445576114446135f6565b5b602002602001018190525060018561145d91906135c2565b945050505b80806001019150506112a6565b508094505050505090565b60606001805461148990613562565b80601f01602080910402602001604051908101604052809291908181526020018280546114b590613562565b80156115025780601f106114d757610100808354040283529160200191611502565b820191906000526020600020905b8154815290600101906020018083116114e557829003601f168201915b5050505050905090565b61151e611517611bbc565b83836122b5565b5050565b600b60009054906101000a900473ffffffffffffffffffffffffffffffffffffffff1673ffffffffffffffffffffffffffffffffffffffff163373ffffffffffffffffffffffffffffffffffffffff16146115b2576040517f08c379a00000000000000000000000000000000000000000000000000000000081526004016115a990613897565b60405180910390fd5b80600a8190555050565b6115c784848461092e565b6115db6115d2611bbc565b85858585612424565b50505050565b6000600c60008381526020019081526020016000206003015490506000600c600084815260200190815260200160002060010160009054906101000a900473ffffffffffffffffffffffffffffffffffffffff169050813414611679576040517f08c379a000000000000000000000000000000000000000000000000000000000815260040161167090613929565b60405180910390fd5b33600c600085815260200190815260200160002060020160006101000a81548173ffffffffffffffffffffffffffffffffffffffff021916908373ffffffffffffffffffffffffffffffffffffffff1602179055506001600c600085815260200190815260200160002060040160006101000a81548160ff0219169083151502179055506000600c600085815260200190815260200160002060010160006101000a81548173ffffffffffffffffffffffffffffffffffffffff021916908373ffffffffffffffffffffffffffffffffffffffff16021790555060016009600082825461176691906135c2565b92505081905550611778303385612148565b600b60009054906101000a900473ffffffffffffffffffffffffffffffffffffffff1673ffffffffffffffffffffffffffffffffffffffff166108fc600a549081150290604051600060405180830381858888f193505050501580156117e2573d6000803e3d6000fd5b508073ffffffffffffffffffffffffffffffffffffffff166108fc349081150290604051600060405180830381858888f19350505050158015611829573d6000803e3d6000fd5b50827f08922f4dc5f124880251c0e93a6cdc26b98609880447fa3563b5b47a3e40989282338560016040516118619493929190613949565b60405180910390a2505050565b606061187982611af7565b50600060066000848152602001908152602001600020805461189a90613562565b80601f01602080910402602001604051908101604052809291908181526020018280546118c690613562565b80156119135780601f106118e857610100808354040283529160200191611913565b820191906000526020600020905b8154815290600101906020018083116118f657829003601f168201915b5050505050905060006119246125d5565b9050600081510361193957819250505061197c565b60008251111561196e5780826040516020016119569291906139ca565b6040516020818303038152906040529250505061197c565b611977846125ec565b925050505b919050565b6000600560008473ffffffffffffffffffffffffffffffffffffffff1673ffffffffffffffffffffffffffffffffffffffff16815260200190815260200160002060008373ffffffffffffffffffffffffffffffffffffffff1673ffffffffffffffffffffffffffffffffffffffff16815260200190815260200160002060009054906101000a900460ff16905092915050565b60007f80ac58cd000000000000000000000000000000000000000000000000000000007bffffffffffffffffffffffffffffffffffffffffffffffffffffffff1916827bffffffffffffffffffffffffffffffffffffffffffffffffffffffff19161480611ae057507f5b5e139f000000000000000000000000000000000000000000000000000000007bffffffffffffffffffffffffffffffffffffffffffffffffffffffff1916827bffffffffffffffffffffffffffffffffffffffffffffffffffffffff1916145b80611af05750611aef82612655565b5b9050919050565b600080611b03836126bf565b9050600073ffffffffffffffffffffffffffffffffffffffff168173ffffffffffffffffffffffffffffffffffffffff1603611b7657826040517f7e273289000000000000000000000000000000000000000000000000000000008152600401611b6d9190612f7f565b60405180910390fd5b80915050919050565b60006004600083815260200190815260200160002060009054906101000a900473ffffffffffffffffffffffffffffffffffffffff169050919050565b600033905090565b611bd183838360016126fc565b505050565b600080611be2846126bf565b9050600073ffffffffffffffffffffffffffffffffffffffff168373ffffffffffffffffffffffffffffffffffffffff1614611c2457611c238184866128c1565b5b600073ffffffffffffffffffffffffffffffffffffffff168173ffffffffffffffffffffffffffffffffffffffff1614611cb557611c666000856000806126fc565b6001600360008373ffffffffffffffffffffffffffffffffffffffff1673ffffffffffffffffffffffffffffffffffffffff168152602001908152602001600020600082825403925050819055505b600073ffffffffffffffffffffffffffffffffffffffff168573ffffffffffffffffffffffffffffffffffffffff1614611d38576001600360008773ffffffffffffffffffffffffffffffffffffffff1673ffffffffffffffffffffffffffffffffffffffff168152602001908152602001600020600082825401925050819055505b846002600086815260200190815260200160002060006101000a81548173ffffffffffffffffffffffffffffffffffffffff021916908373ffffffffffffffffffffffffffffffffffffffff160217905550838573ffffffffffffffffffffffffffffffffffffffff168273ffffffffffffffffffffffffffffffffffffffff167fddf252ad1be2c89b69c2b068fc378daa952ba7f163c4a11628f55a4df523b3ef60405160405180910390a4809150509392505050565b600073ffffffffffffffffffffffffffffffffffffffff168273ffffffffffffffffffffffffffffffffffffffff1603611e625760006040517f64a0ae92000000000000000000000000000000000000000000000000000000008152600401611e599190612ee9565b60405180910390fd5b6000611e7083836000611bd6565b9050600073ffffffffffffffffffffffffffffffffffffffff168173ffffffffffffffffffffffffffffffffffffffff1614611ee45760006040517f73c6ac6e000000000000000000000000000000000000000000000000000000008152600401611edb9190612ee9565b60405180910390fd5b505050565b80600660008481526020019081526020016000209081611f099190613b9a565b507ff8e1a15aba9398e019f0b49df1a4fde98ee17ae345cb5f6b5e2c27f5033e8ce782604051611f399190612f7f565b60405180910390a15050565b60008111611f88576040517f08c379a0000000000000000000000000000000000000000000000000000000008152600401611f7f90613cb8565b60405180910390fd5b600a543414611fcc576040517f08c379a0000000000000000000000000000000000000000000000000000000008152600401611fc3906137dc565b60405180910390fd5b6040518060a001604052808381526020013373ffffffffffffffffffffffffffffffffffffffff1681526020013073ffffffffffffffffffffffffffffffffffffffff16815260200182815260200160001515815250600c60008481526020019081526020016000206000820151816000015560208201518160010160006101000a81548173ffffffffffffffffffffffffffffffffffffffff021916908373ffffffffffffffffffffffffffffffffffffffff16021790555060408201518160020160006101000a81548173ffffffffffffffffffffffffffffffffffffffff021916908373ffffffffffffffffffffffffffffffffffffffff1602179055506060820151816003015560808201518160040160006101000a81548160ff021916908315150217905550905050612105333084612148565b817fdebdb32cb5230ab727c9c361b16fdb2015df225c10e6a3e7f60ecd5dc5be4516333084600060405161213c9493929190613949565b60405180910390a25050565b600073ffffffffffffffffffffffffffffffffffffffff168273ffffffffffffffffffffffffffffffffffffffff16036121ba5760006040517f64a0ae920000000000000000000000000000000000000000000000000000000081526004016121b19190612ee9565b60405180910390fd5b60006121c883836000611bd6565b9050600073ffffffffffffffffffffffffffffffffffffffff168173ffffffffffffffffffffffffffffffffffffffff160361223b57816040517f7e2732890000000000000000000000000000000000000000000000000000000081526004016122329190612f7f565b60405180910390fd5b8373ffffffffffffffffffffffffffffffffffffffff168173ffffffffffffffffffffffffffffffffffffffff16146122af578382826040517f64283d7b0000000000000000000000000000000000000000000000000000000081526004016122a693929190613625565b60405180910390fd5b50505050565b600073ffffffffffffffffffffffffffffffffffffffff168273ffffffffffffffffffffffffffffffffffffffff160361232657816040517f5b08ba1800000000000000000000000000000000000000000000000000000000815260040161231d9190612ee9565b60405180910390fd5b80600560008573ffffffffffffffffffffffffffffffffffffffff1673ffffffffffffffffffffffffffffffffffffffff16815260200190815260200160002060008473ffffffffffffffffffffffffffffffffffffffff1673ffffffffffffffffffffffffffffffffffffffff16815260200190815260200160002060006101000a81548160ff0219169083151502179055508173ffffffffffffffffffffffffffffffffffffffff168373ffffffffffffffffffffffffffffffffffffffff167f17307eab39ab6107e8899845ad3d59bd9653f200f220920489ca2b5937696c31836040516124179190612d78565b60405180910390a3505050565b60008373ffffffffffffffffffffffffffffffffffffffff163b11156125ce578273ffffffffffffffffffffffffffffffffffffffff1663150b7a02868685856040518563ffffffff1660e01b81526004016124839493929190613d2d565b6020604051808303816000875af19250505080156124bf57506040513d601f19601f820116820180604052508101906124bc9190613d8e565b60015b612543573d80600081146124ef576040519150601f19603f3d011682016040523d82523d6000602084013e6124f4565b606091505b50600081510361253b57836040517f64a0ae920000000000000000000000000000000000000000000000000000000081526004016125329190612ee9565b60405180910390fd5b805160208201fd5b63150b7a0260e01b7bffffffffffffffffffffffffffffffffffffffffffffffffffffffff1916817bffffffffffffffffffffffffffffffffffffffffffffffffffffffff1916146125cc57836040517f64a0ae920000000000000000000000000000000000000000000000000000000081526004016125c39190612ee9565b60405180910390fd5b505b5050505050565b606060405180602001604052806000815250905090565b60606125f782611af7565b5060006126026125d5565b90506000815111612622576040518060200160405280600081525061264d565b8061262c84612985565b60405160200161263d9291906139ca565b6040516020818303038152906040525b915050919050565b60007f01ffc9a7000000000000000000000000000000000000000000000000000000007bffffffffffffffffffffffffffffffffffffffffffffffffffffffff1916827bffffffffffffffffffffffffffffffffffffffffffffffffffffffff1916149050919050565b60006002600083815260200190815260200160002060009054906101000a900473ffffffffffffffffffffffffffffffffffffffff169050919050565b80806127355750600073ffffffffffffffffffffffffffffffffffffffff168273ffffffffffffffffffffffffffffffffffffffff1614155b1561286957600061274584611af7565b9050600073ffffffffffffffffffffffffffffffffffffffff168373ffffffffffffffffffffffffffffffffffffffff16141580156127b057508273ffffffffffffffffffffffffffffffffffffffff168173ffffffffffffffffffffffffffffffffffffffff1614155b80156127c357506127c18184611981565b155b1561280557826040517fa9fbf51f0000000000000000000000000000000000000000000000000000000081526004016127fc9190612ee9565b60405180910390fd5b811561286757838573ffffffffffffffffffffffffffffffffffffffff168273ffffffffffffffffffffffffffffffffffffffff167f8c5be1e5ebec7d5bd14f71427d1e84f3dd0314c0f7b2291e5b200ac8c7c3b92560405160405180910390a45b505b836004600085815260200190815260200160002060006101000a81548173ffffffffffffffffffffffffffffffffffffffff021916908373ffffffffffffffffffffffffffffffffffffffff16021790555050505050565b6128cc838383612a53565b61298057600073ffffffffffffffffffffffffffffffffffffffff168373ffffffffffffffffffffffffffffffffffffffff160361294157806040517f7e2732890000000000000000000000000000000000000000000000000000000081526004016129389190612f7f565b60405180910390fd5b81816040517f177e802f0000000000000000000000000000000000000000000000000000000081526004016129779291906137fc565b60405180910390fd5b505050565b60606000600161299484612b14565b01905060008167ffffffffffffffff8111156129b3576129b261319c565b5b6040519080825280601f01601f1916602001820160405280156129e55781602001600182028036833780820191505090505b509050600082602083010190505b600115612a48578080600190039150507f3031323334353637383961626364656600000000000000000000000000000000600a86061a8153600a8581612a3c57612a3b613dbb565b5b049450600085036129f3575b819350505050919050565b60008073ffffffffffffffffffffffffffffffffffffffff168373ffffffffffffffffffffffffffffffffffffffff1614158015612b0b57508273ffffffffffffffffffffffffffffffffffffffff168473ffffffffffffffffffffffffffffffffffffffff161480612acc5750612acb8484611981565b5b80612b0a57508273ffffffffffffffffffffffffffffffffffffffff16612af283611b7f565b73ffffffffffffffffffffffffffffffffffffffff16145b5b90509392505050565b600080600090507a184f03e93ff9f4daa797ed6e38ed64bf6a1f0100000000000000008310612b72577a184f03e93ff9f4daa797ed6e38ed64bf6a1f0100000000000000008381612b6857612b67613dbb565b5b0492506040810190505b6d04ee2d6d415b85acef81000000008310612baf576d04ee2d6d415b85acef81000000008381612ba557612ba4613dbb565b5b0492506020810190505b662386f26fc100008310612bde57662386f26fc100008381612bd457612bd3613dbb565b5b0492506010810190505b6305f5e1008310612c07576305f5e1008381612bfd57612bfc613dbb565b5b0492506008810190505b6127108310612c2c576127108381612c2257612c21613dbb565b5b0492506004810190505b60648310612c4f5760648381612c4557612c44613dbb565b5b0492506002810190505b600a8310612c5e576001810190505b80915050919050565b6040518060a0016040528060008152602001600073ffffffffffffffffffffffffffffffffffffffff168152602001600073ffffffffffffffffffffffffffffffffffffffff168152602001600081526020016000151581525090565b6000604051905090565b600080fd5b600080fd5b60007fffffffff0000000000000000000000000000000000000000000000000000000082169050919050565b612d0d81612cd8565b8114612d1857600080fd5b50565b600081359050612d2a81612d04565b92915050565b600060208284031215612d4657612d45612cce565b5b6000612d5484828501612d1b565b91505092915050565b60008115159050919050565b612d7281612d5d565b82525050565b6000602082019050612d8d6000830184612d69565b92915050565b600081519050919050565b600082825260208201905092915050565b60005b83811015612dcd578082015181840152602081019050612db2565b60008484015250505050565b6000601f19601f8301169050919050565b6000612df582612d93565b612dff8185612d9e565b9350612e0f818560208601612daf565b612e1881612dd9565b840191505092915050565b60006020820190508181036000830152612e3d8184612dea565b905092915050565b6000819050919050565b612e5881612e45565b8114612e6357600080fd5b50565b600081359050612e7581612e4f565b92915050565b600060208284031215612e9157612e90612cce565b5b6000612e9f84828501612e66565b91505092915050565b600073ffffffffffffffffffffffffffffffffffffffff82169050919050565b6000612ed382612ea8565b9050919050565b612ee381612ec8565b82525050565b6000602082019050612efe6000830184612eda565b92915050565b612f0d81612ec8565b8114612f1857600080fd5b50565b600081359050612f2a81612f04565b92915050565b60008060408385031215612f4757612f46612cce565b5b6000612f5585828601612f1b565b9250506020612f6685828601612e66565b9150509250929050565b612f7981612e45565b82525050565b6000602082019050612f946000830184612f70565b92915050565b600081519050919050565b600082825260208201905092915050565b6000819050602082019050919050565b612fcf81612e45565b82525050565b6000612fe082612ea8565b9050919050565b612ff081612fd5565b82525050565b612fff81612d5d565b82525050565b60a08201600082015161301b6000850182612fc6565b50602082015161302e6020850182612fe7565b5060408201516130416040850182612fe7565b5060608201516130546060850182612fc6565b5060808201516130676080850182612ff6565b50505050565b60006130798383613005565b60a08301905092915050565b6000602082019050919050565b600061309d82612f9a565b6130a78185612fa5565b93506130b283612fb6565b8060005b838110156130e35781516130ca888261306d565b97506130d583613085565b9250506001810190506130b6565b5085935050505092915050565b6000602082019050818103600083015261310a8184613092565b905092915050565b60008060006060848603121561312b5761312a612cce565b5b600061313986828701612f1b565b935050602061314a86828701612f1b565b925050604061315b86828701612e66565b9150509250925092565b60006020828403121561317b5761317a612cce565b5b600061318984828501612f1b565b91505092915050565b600080fd5b600080fd5b7f4e487b7100000000000000000000000000000000000000000000000000000000600052604160045260246000fd5b6131d482612dd9565b810181811067ffffffffffffffff821117156131f3576131f261319c565b5b80604052505050565b6000613206612cc4565b905061321282826131cb565b919050565b600067ffffffffffffffff8211156132325761323161319c565b5b61323b82612dd9565b9050602081019050919050565b82818337600083830152505050565b600061326a61326584613217565b6131fc565b90508281526020810184848401111561328657613285613197565b5b613291848285613248565b509392505050565b600082601f8301126132ae576132ad613192565b5b81356132be848260208601613257565b91505092915050565b600080604083850312156132de576132dd612cce565b5b600083013567ffffffffffffffff8111156132fc576132fb612cd3565b5b61330885828601613299565b925050602061331985828601612e66565b9150509250929050565b6000806040838503121561333a57613339612cce565b5b600061334885828601612e66565b925050602061335985828601612e66565b9150509250929050565b61336c81612d5d565b811461337757600080fd5b50565b60008135905061338981613363565b92915050565b600080604083850312156133a6576133a5612cce565b5b60006133b485828601612f1b565b92505060206133c58582860161337a565b9150509250929050565b600067ffffffffffffffff8211156133ea576133e961319c565b5b6133f382612dd9565b9050602081019050919050565b600061341361340e846133cf565b6131fc565b90508281526020810184848401111561342f5761342e613197565b5b61343a848285613248565b509392505050565b600082601f83011261345757613456613192565b5b8135613467848260208601613400565b91505092915050565b6000806000806080858703121561348a57613489612cce565b5b600061349887828801612f1b565b94505060206134a987828801612f1b565b93505060406134ba87828801612e66565b925050606085013567ffffffffffffffff8111156134db576134da612cd3565b5b6134e787828801613442565b91505092959194509250565b6000806040838503121561350a57613509612cce565b5b600061351885828601612f1b565b925050602061352985828601612f1b565b9150509250929050565b7f4e487b7100000000000000000000000000000000000000000000000000000000600052602260045260246000fd5b6000600282049050600182168061357a57607f821691505b60208210810361358d5761358c613533565b5b50919050565b7f4e487b7100000000000000000000000000000000000000000000000000000000600052601160045260246000fd5b60006135cd82612e45565b91506135d883612e45565b92508282019050808211156135f0576135ef613593565b5b92915050565b7f4e487b7100000000000000000000000000000000000000000000000000000000600052603260045260246000fd5b600060608201905061363a6000830186612eda565b6136476020830185612f70565b6136546040830184612eda565b949350505050565b600061366782612e45565b915061367283612e45565b925082820390508181111561368a57613689613593565b5b92915050565b600061369b82612e45565b91507fffffffffffffffffffffffffffffffffffffffffffffffffffffffffffffffff82036136cd576136cc613593565b5b600182019050919050565b7f4f6e6c79206974656d206f776e65722063616e20706572666f726d207468697360008201527f206f7065726174696f6e00000000000000000000000000000000000000000000602082015250565b6000613734602a83612d9e565b915061373f826136d8565b604082019050919050565b6000602082019050818103600083015261376381613727565b9050919050565b7f5072696365206d75737420626520657175616c20746f206c697374696e67207060008201527f7269636500000000000000000000000000000000000000000000000000000000602082015250565b60006137c6602483612d9e565b91506137d18261376a565b604082019050919050565b600060208201905081810360008301526137f5816137b9565b9050919050565b60006040820190506138116000830185612eda565b61381e6020830184612f70565b9392505050565b7f4f6e6c79206d61726b6574706c616365206f776e65722063616e206368616e6760008201527f6520746865206c697374696e672070726963652e000000000000000000000000602082015250565b6000613881603483612d9e565b915061388c82613825565b604082019050919050565b600060208201905081810360008301526138b081613874565b9050919050565b7f506c65617365207375626d6974207468652061736b696e67207072696365206960008201527f6e206f7264657220746f20636f6d706c65746520746865207075726368617365602082015250565b6000613913604083612d9e565b915061391e826138b7565b604082019050919050565b6000602082019050818103600083015261394281613906565b9050919050565b600060808201905061395e6000830187612eda565b61396b6020830186612eda565b6139786040830185612f70565b6139856060830184612d69565b95945050505050565b600081905092915050565b60006139a482612d93565b6139ae818561398e565b93506139be818560208601612daf565b80840191505092915050565b60006139d68285613999565b91506139e28284613999565b91508190509392505050565b60008190508160005260206000209050919050565b60006020601f8301049050919050565b600082821b905092915050565b600060088302613a507fffffffffffffffffffffffffffffffffffffffffffffffffffffffffffffffff82613a13565b613a5a8683613a13565b95508019841693508086168417925050509392505050565b6000819050919050565b6000613a97613a92613a8d84612e45565b613a72565b612e45565b9050919050565b6000819050919050565b613ab183613a7c565b613ac5613abd82613a9e565b848454613a20565b825550505050565b600090565b613ada613acd565b613ae5818484613aa8565b505050565b5b81811015613b0957613afe600082613ad2565b600181019050613aeb565b5050565b601f821115613b4e57613b1f816139ee565b613b2884613a03565b81016020851015613b37578190505b613b4b613b4385613a03565b830182613aea565b50505b505050565b600082821c905092915050565b6000613b7160001984600802613b53565b1980831691505092915050565b6000613b8a8383613b60565b9150826002028217905092915050565b613ba382612d93565b67ffffffffffffffff811115613bbc57613bbb61319c565b5b613bc68254613562565b613bd1828285613b0d565b600060209050601f831160018114613c045760008415613bf2578287015190505b613bfc8582613b7e565b865550613c64565b601f198416613c12866139ee565b60005b82811015613c3a57848901518255600182019150602085019450602081019050613c15565b86831015613c575784890151613c53601f891682613b60565b8355505b6001600288020188555050505b505050505050565b7f5072696365206d757374206265206174206c6561737420312077656900000000600082015250565b6000613ca2601c83612d9e565b9150613cad82613c6c565b602082019050919050565b60006020820190508181036000830152613cd181613c95565b9050919050565b600081519050919050565b600082825260208201905092915050565b6000613cff82613cd8565b613d098185613ce3565b9350613d19818560208601612daf565b613d2281612dd9565b840191505092915050565b6000608082019050613d426000830187612eda565b613d4f6020830186612eda565b613d5c6040830185612f70565b8181036060830152613d6e8184613cf4565b905095945050505050565b600081519050613d8881612d04565b92915050565b600060208284031215613da457613da3612cce565b5b6000613db284828501613d79565b91505092915050565b7f4e487b7100000000000000000000000000000000000000000000000000000000600052601260045260246000fdfea264697066735822122036aaa668ce90873267004a7cb273c969e04beadf2db9beff0a8cc2e3a4eebf3e64736f6c634300081c0033",
  "linkReferences": {},
  "deployedLinkReferences": {}
}